:020000040800F2
:10000000A80A0020ED010008715A000825530008D5
:100010005D58000829110008CD6F0008000000009D
:10002000000000000000000000000000096200085D
:10003000CD15000800000000595E0008216300088B
:10004000070200080702000807020008070200086C
:10005000070200080702000807020008070200085C
:10006000070200080702000807020008F91200084A
:10007000051300080702000807020008070200082D
:100080000702000800000000FD0D0008070200083C
:1000900007020008A118000807020008070200086C
:1000A000070200080702000807020008070200080C
:1000B00007020008070200080702000807020008FC
:1000C00007020008070200080702000807020008EC
:1000D00007020008756F0008070200080702000801
:1000E00007020008070200080702000807020008CC
:1000F00007020008070200080702000800000000CD
:1001000000000000070200080000000007020008CD
:1001100007020008000000000702000899630008B9
:10012000070200080702000807020008070200088B
:10013000070200080000000000000000070200089D
:10014000070200080702000800000000000000008D
:10015000000000000000000000000000000000009F
:10016000000000000000000000000000070200087E
:10017000070200080000000000000000000000006E
:10018000000000000702000800000000000000005E
:10019000000000000000000000000000000000005F
:1001A000000000000000000007020008070200082D
:1001B000070200080702000807020008000000000C
:1001C000000000000702000800000000000000001E
:1001D0000702000807020008DFF80CD000F026FB39
:1001E00000480047E9710008A80A00200648804737
:1001F00006480047FEE7FEE7FEE7FEE7FEE7FEE70C
:10020000FEE7FEE7FEE7FEE789630008D901000884
:100210002DE9F05F0546002092469B46884606463B
:10022000814640241BE0284641464746224600F0CE
:10023000B2F953465A46C01A914110D31146184696
:10024000224600F099F92D1A67EB01084F46224625
:100250000120002100F090F917EB00094E41201E0B
:10026000A4F10104DFDC484631462A464346BDE896
:10027000F09FD2B201E000F8012B491EFBD270477B
:100280000022F6E710B513460A4604461946FFF762
:10029000F0FF204610BD2DE9FE4F804681EA0300A5
:1002A000C00F0C46009021F0004123F00045B8EB50
:1002B0000200A94105D24046214690461C460B4605
:1002C000024623F00040104347D0270DC7F30A0031
:1002D000C3F30A510290401A019040286BDAC3F32D
:1002E000130040F4801B0098924620B10023D2EB0B
:1002F000030A63EB0B0B01985946C0F140025046CC
:1003000000F03AF906460D4650465946019A00F06B
:1003100052F910EB08006141002487EA115284EA87
:10032000E7731A4340D0009A62B3019A012A4FEA58
:10033000075215DC001B61EB02014FF0004202EA9C
:100340000752CDE90042001C41F5801132462B4690
:1003500000F089F903B0BDE8F08F40462146F9E787
:10036000001B61EB0201001C41F5801300185B418A
:100370002018A2F5001747EB030140EAD570B61923
:100380006D4111E06D084FEA360645EAC0754FEA47
:100390000752001B61EB0201001C41F58011490866
:1003A0004FEA30000019514132462B4603B0BDE8F8
:1003B000F04F00F049B90098012240000023D0EB33
:1003C000020263EBE073009821464FEAE074B8EB59
:1003D000000061EB0401E9E783F000435BE781F093
:1003E000004158E72DE9FE4F81EA030404F0004480
:1003F00021F0004100944FF0000B23F0004350EA3D
:1004000001045ED052EA03045BD0C3F30A54C1F383
:100410000A552C44A4F2F3340194A0FB0254C1F316
:10042000130141F48011C3F3130343F4801301FB60
:10043000024400FB034E840A970A44EA815447EAC7
:100440008357A4FB076802958D0A05FB07854FEAD1
:10045000932C04FB0C542705029D4FEA065847EAEB
:100460001637B5EB08056EEB070C870E920E47EAC0
:10047000811742EA8312A7FB0201B6EB0B0164EB82
:1004800000042B0D43EA0C335E1844EB1C50DA4693
:100490005146E7FB0201C5F313044FEA0B3343EA6D
:1004A00014534FEA0432019C43EA0603A4F10C04FE
:1004B0000294009CCDE900B400F0D5F803B0BDE88B
:1004C000F08F00200146F9E70EB5C10F80EAE07019
:1004D0000844CA07002140F233438DE80E000A4663
:1004E0000B4600F0C0F803B000BD00F0004230F051
:1004F00000400AD0C10D01F56071C0F3160042EA58
:100500000151C2084007114370470020014670475F
:1005100030B5041E71F1000404DB4FF0004440428A
:1005200064EB0101141E73F1000405DB1C464FF05F
:100530000043524263EB04038B4208BF824230BD4A
:1005400001F0004330B421F0004150EA010206D02E
:100550000A0DA2F56072C1F31301002A02DC30BC5F
:1005600000207047440F44EAC104C100E01830BCC9
:1005700000EBC25000F031B8202A04DB203A00FA28
:1005800002F1002070479140C2F1200320FA03F3EA
:10059000194390407047202A04DB203A21FA02F0E8
:1005A0000021704721FA02F3D040C2F120029140AD
:1005B000084319467047202A06DBCB17203A41FA38
:1005C00002F043EAE07306E041FA02F3D040C2F1E0
:1005D000200291400843194670470029A8BF704780
:1005E000401C490008BF20F00100704710B4B0FA69
:1005F00080FC00FA0CF050EA010404BF10BC704704
:1006000049B1CCF1200421FA04F411FA0CF118BF1D
:10061000012121430843A3EB0C01CB1D4FEA0061EC
:100620004FEA102042BF002010BC704700EBC350BF
:1006300010440029A4BF10BC7047401C490008BFEB
:1006400020F0010010BC704710B5141E73F10004B7
:1006500008DA401C41F1000192185B411A4301D1B4
:1006600020F0010010BD2DE9F04D92469B4611B1DE
:10067000B1FA81F202E0B0FA80F220329046FFF740
:100680007BFF04460F4640EA0A0041EA0B0153464D
:100690005A46084313D0114653EA010019D0C8F155
:1006A00040025046FFF777FF05460E465046594632
:1006B0004246FFF761FF084305D0012004E02046D1
:1006C0003946BDE8F08D0020054346EAE0762C432C
:1006D00037430A986305E40AA0EB08000022FD0AEC
:1006E00044EA47540A3002D500200146E9E70105F3
:1006F00010196941DDE9084500196941BDE8F04D6F
:10070000A2E72DE9F04D00231A461B1A8A4103DBAC
:1007100000200146BDE8F08DC1F30A52C1F3130178
:1007200041F480154FF0000BD10702D100186D4144
:10073000521E0027044640F2FF11384601EB620AC0
:100740003E468046024600204FF48011FFF723FF0B
:10075000C2197141BB1846EB0100B4EB030C75EBF9
:10076000000C04D3E41A65EB000517460E46241965
:1007700008F101006D4180463428E3DDF91946EBAC
:100780000600091BA84103D24FF0FF32134601E0D7
:10079000002213461BEB070046EB0A51BDE8F04D63
:1007A000FFF752BF2DE9FE4FC3F30A5701F0004592
:1007B0000024C1F30A56C3F31303C1F3130143F436
:1007C000801312EB020AA64641F48011009543EB18
:1007D000030CA7F1010B16E0B0EB0A0061EB0C0172
:1007E000071E71F1000707DA4FF00008D0EB080090
:1007F00085F0004568EB0101171A73EB0107EBD395
:10080000761E001849415E45F6DA50EA010209D029
:10081000CDE900E5002213460296FFF724FF03B05E
:10082000BDE8F08F20460099F9E70000064C074D1F
:1008300006E0E06840F0010394E8070098471034B0
:10084000AC42F6D3FFF7CCFCCC720008EC72000887
:100850002DE9F04D81EA030404F0004B21F000453E
:1008600014464FF0000A23F0004150EA050220D060
:1008700054EA01021DD0C5F30A570246C5F313031B
:10088000C1F31300C1F30A5640F4801543F48013FA
:10089000A7EB0608101BD64608F2FD3873EB0500DF
:1008A00002D308F1010801E092185B41B8F1000F92
:1008B00003DA00200146BDE8F08D00204FF48011DE
:1008C000064684460EE0171B73EB050705D3121B83
:1008D00063EB050306434CEA010C49084FEA30007C
:1008E00092185B4150EA0107EDD152EA030012D0A1
:1008F00082EA040083EA0501084305D0101BAB41DE
:1009000006D20122002306E000224FF0004302E05D
:100910006FF0010253101AEB06004CEB085110EB7C
:100920000A0041EB0B01BDE8F04DFFF78DBE000062
:100930002DE9F04F81B02DED048B84B00588D0F8FF
:1009400004C0D0F808806F1E0020B0EBD30F0CEB72
:10095000870B0297CDE9005300F0E68125F00700F0
:1009600008EB8000039045F007009FEDBB0ADF080D
:100970004FEAD50905F007060CEB800A604600BF78
:100980000B68B9F1000FCBF800304B68CBF804309E
:100990008B68CBF80830CB68CBF80C300B69CBF800
:1009A00010304B69CBF814308B69CBF81830CB6919
:1009B000CBF81C3090ED006A90ED015A90ED027A70
:1009C00090ED031A90ED042A90ED054A90ED063A59
:1009D00000F044814FF0000EF0EE400AF0EE401AB5
:1009E000F0EE402AF0EE403AF0EE404AF0EE405A87
:1009F000F0EE406A4B46F0EE407A00BF08EB0E0482
:100A000094ED008A00EB0E0523EE089A26EE086AA4
:100A100071EE891A94ED019A37EE866A65EE087ACE
:100A200076EEA76A67EE087A25EE095A75EEA75AA0
:100A300061EE087A36EE055A27EE096A74EEA74A87
:100A400062EE087A76EE866A21EE096A73EEA73ABC
:100A500064EE087A75EE865A22EE096A72EEA77A7B
:100A6000D5ED072A74EE864A24EE096A73EE863ABB
:100A700023EE096A28EE228A77EE867A95ED086AD7
:100A800070EE880A22EE898A71EE881A29EE068AAB
:100A900094ED029A70EE880A27EE097A35EE077A0D
:100AA00021EE095A76EE856A22EE095A75EE855ACC
:100AB00024EE095A74EE854A23EE095A73EE853AFC
:100AC00022EE895A77EE857A95ED095A26EE098A43
:100AD00071EE881A29EE058A94ED039A70EE880A61
:100AE00021EE091A37EE011A22EE097A76EE876AAC
:100AF00024EE097A75EE875A23EE097A74EE874A56
:100B000022EE897A73EE873A26EE097A77EE877AB3
:100B100095ED0A7A25EE098A71EE881A29EE078A80
:100B200094ED049A70EE880A22EE092A31EE022A28
:100B300024EE091A76EE816A23EE091A75EE815ABF
:100B400022EE891A74EE814A26EE091A73EE813A72
:100B500025EE091A77EE817A95ED0B1A27EE098AB0
:100B600071EE881A29EE018A94ED059A70EE880AD2
:100B700024EE094A32EE044A23EE092A76EE826A0E
:100B800022EE892A75EE825A26EE092A74EE824AEE
:100B900025EE092A73EE823A27EE092A77EE827A49
:100BA00095ED0C2A21EE098A71EE881A29EE028A47
:100BB00094ED069A70EE880A23EE093A34EE033A71
:100BC00022EE894A76EE846A26EE094A75EE845A48
:100BD00025EE094A74EE844A27EE094A73EE843AF8
:100BE00021EE094A37EE848A95ED0D4A62EE097AC4
:100BF00071EEA71A69EE047A94ED079A70EEA70ACF
:100C000062EE892A73EE227A26EE093A76EE836A3C
:100C100025EE093A75EE835A27EE093A74EE834AB7
:100C200021EE093A73EE833A22EE093A78EE032A6E
:100C300095ED0E3A24EE098A71EE881A29EE038AA0
:100C400070EE880AB9F101090EF1200E7FF4D6AEDC
:100C5000039D5446994614E00000000000F11C0476
:100C60004546F0EE407AF0EE406AF0EE405AF0EE83
:100C7000404AF0EE403AF0EE402AF0EE401AF0EE34
:100C8000400A20310BF1200BA6B3334695ED008AC4
:100C9000043526EE086A77EE867AB0EE456A25EED0
:100CA000085A76EE856AB0EE475A27EE087A75EE56
:100CB000875AB0EE417A21EE081A74EE814AB0EEFE
:100CC000421A22EE082A73EE823AB0EE442A24EE4B
:100CD000084A72EE842AB0EE434A94ED003A24EEBC
:100CE000089A28EE038A71EE891A70EE880A043495
:100CF000013BCBD102F120052030C2ED007AC2EDDC
:100D0000016AC2ED025AC2ED034AC2ED043AC2EDD5
:100D1000052AC2ED061AC2ED070A013F0AF1200AB0
:100D20002A467FF42DAE01E060461546019A12F086
:100D3000070225D09FED280ADDF800E051F8043BBA
:100D4000BEF1000F4BF8043BB0EE401A13D0002365
:100D50007746B0EE401A00BF08EB0304C61896EDC4
:100D6000002A94ED003A013F22EE032A31EE021AE6
:100D700003F10403F0D1A5EC011A0430013ADDD1EE
:100D8000029F0021B1EB970F16D0B90802680CF151
:100D90001003CCF8002042680139CCF804208268A6
:100DA000CCF8082000F11002C068CCF80C009C467A
:100DB0001046EBD110469C4617F0030106D000BF49
:100DC00050F8042B01394CF8042BF9D104B0BDECD8
:100DD000048B01B0BDE8F08F00000000B0B50546FF
:100DE0000498298008446FF0030101EB8001184644
:100DF0001C46AA60FFF744FA6C60B0BD014801F0E0
:100E00008BB900002002002070B50446006881689C
:100E10008268C1F3400112F0010F28D039BB81680C
:100E200001F00D01012914D18168124A1140891C79
:100E3000816021680320086002F0ACFA054612E0E8
:100E400002F0A8FA401B02280DD920688068C0076C
:100E500009D0E06D40F01000E065206E40F0010028
:100E60002066012070BD20688068C007E8D100209E
:100E700070BD0000C0FFFF7FF8B504460020009061
:100E80002068816811F0010F41D18168214A114227
:100E90002ED18168D5432940491C81601E48806855
:100EA00000F0E07000020DD51C481D490068B0FB41
:100EB000F1F0401C00EB4000800000E0401E00907C
:100EC0000028FBD102F066FA06461BE0816811F0AB
:100ED000010F03D181682940491C816002F05AFA50
:100EE000801B02280ED920680068C043C00709D0C3
:100EF000E06D40F01000E065206E40F001002066DB
:100F00000120F8BD20680168C943C907DED100206F
:100F1000F8BD00003F0000800003005048000020A2
:100F2000400D030030B5138800EE103AB8EE402AA9
:100F300080ED072A538800EE103AF8EE401AC0ED13
:100F4000081A928800EE102A644AB8EE401A80ED22
:100F5000091AD28800EE102AB8EE400A80ED0A0A7B
:100F6000DFED5F0A20EE203A80ED113A4A789FEDDE
:100F70005D0ADFED5D0A00240123F7EE002A12B1BD
:100F8000012A42D080E00A78D2BBB0F8482045F66A
:100F9000C055AA4235D245F2F055AA422DD922EECB
:100FA000002A61EE801A21EE000A22EE202A61EE6C
:100FB000A01A20EE201A80ED0E2AC0ED0F1A80ED47
:100FC000101AD0ED0B0A9FED490A20EE803ADFEDB2
:100FD000480A02EE203A80ED0B3A90ED0C2A22EE00
:100FE000002A01EEA02A80ED0C2AD0ED0D1A21EE88
:100FF000800A01EE200A80ED0D0A521CA0F848205C
:1010000042E04B70A0F848403EE022EE002AD0EDCE
:101010000B3A61EE801A21EE000A52EE203A90ED72
:10102000132A83EE824A80ED0E4AD0ED0C3A51EE3F
:10103000A03AC3EE821AC0ED0F1AD0ED0D1A50EE91
:10104000201A81EE820A80ED100A90ED000A70EEFF
:10105000220AB4EEE03AF1EE10FA01DD80ED110A59
:10106000D0ED110A9FED230A234A60EE800AC2EDFB
:10107000000AD0ED110A224A20EE800ADFED1F0A95
:1010800020EE200A82ED080A90ED000AD0ED110A48
:1010900030EE221AF4EEC10AF1EE10FA06DC30EE60
:1010A000620AF4EEC00AF1EE10FA01D20B7030BD04
:1010B000D0ED0E0A90ED010AF4EEC00AF1EE10FA3E
:1010C00006DCD0ED100AF4EEC00AF1EE10FA02DDF3
:1010D0000220087030BD0C7030BD00000000002000
:1010E0002E33113C3333534000008039A4707D3FD0
:1010F0000AD7233C3ACD133FF0000020907BEC3E12
:101100004C01002002E000BF30EE600AB4EEE00ABD
:10111000F1EE10FAF8DC01E030EE200AB5EEC00A7C
:10112000F1EE10FAF8D37047FEE700000C4810B556
:10113000002102220160C0E901120122C0E903215D
:1011400041610146074801F0CAFC0022012105481F
:1011500001F030FCBDE81040024801F09CBF0000E7
:101160008C060020B402002010B5082A14D1427861
:101170008478120442EA0422C47803782243007976
:10118000012909D0022907D0032905D0102903D14C
:1011900002498B7008724A6010BD000010020020E6
:1011A00070B5104C0825206000206060C4E902057D
:1011B000206160615225A061C4E907050A4C2170D5
:1011C000110C6170110AA170E27023716071A0713D
:1011D000E07122460349054801F05CFC002800D07C
:1011E000012070BD400600202A000020B40200202B
:1011F000144B134A1A60DFED140A124A20EE200A3B
:10120000121DBDEEC00A10EE103A13606FF00043DD
:101210001360121D136800EE103AF8EEC00A9FED3D
:101220000B0A60EE800AC0ED000A106800EE900A1A
:10123000F8EEE00A20EE800A81ED000A7047000017
:1012400061001800000C024083F9224E00000030BB
:1012500070B590ED0E0AB0EE001A82ED090A90ED1D
:101260000E0AD0ED0F0A1D46144600EE810ADFED8E
:10127000140A80EE201A82ED0A1A91ED0C0A03F18D
:101280005801081FFFF7B4FF94ED090AD5ED160ABF
:10129000D4ED0A1A95ED151A20EE202A61EEA00A67
:1012A00004F10C01081D01EE812A40EE410A84ED93
:1012B0000E2AC4ED040ABDE8704000F03BBB0000FC
:1012C000D7B3DD3FDFED090A094901E030EE600ADE
:1012D00010EE100A8842F9DA064900BF10EE100A33
:1012E000884202D930EE200AF8E77047DB0FC94088
:1012F000DB0F4940DB0F49C0014801F046BA00004E
:10130000A8040020014801F040BA000008050020B0
:101310000D4902688A4201D20C4901E00B49203193
:10132000D2B21423083AB2FBF3F2436C02F01F026C
:1013300023F003031944816404498031C16401210D
:101340009140016570470000080402400008024017
:101350000179074A02EB81024265054A4432491E7F
:10136000826501F01F0201219140C16570470000B4
:10137000FC08024030B5D0E913456560446D14B1F6
:10138000D0E91645656090F8444004F01F0501243B
:10139000AC40056C6C60046863608368102B036864
:1013A00003D099600068C26030BD9A600068C16077
:1013B00030BD00009FED741A7448B1EE080A80ED4C
:1013C000001A80ED010AB7EE000A80ED020A9FEDD7
:1013D000700A80ED030A9FED6F0A80ED040A9FED0D
:1013E0006E0A072180ED050A01769FED6C0A80EDFB
:1013F000070A80ED080A80ED090A80ED0A0ADFED90
:10140000680A0021C0ED0B0AC0ED0C0AC0ED0D0A00
:1014100080ED0E0A80ED0F0A80ED100A80ED110AB2
:10142000A0F84810F5EE000AC0ED130A5D48F2EE90
:10143000040A41F29A02017041708170C170017119
:101440005948017080ED010A018180ED030A80EDA9
:10145000040A416180ED060A80ED070A80ED080A62
:1014600080ED090AC0ED0A0A80ED0B0A80ED0C0A36
:1014700080ED0D0A80ED0E0A81874C4880ED001A40
:1014800080ED010A80ED020A80ED030A01764176C3
:101490008176C176017780ED080A80ED090A80ED3A
:1014A0000A0A828780ED0B0A80ED0C0A80ED0D0A96
:1014B00080ED0E0A80ED100A80ED110A80ED120A0F
:1014C000A0F84C10A0F84E10A0F8501080ED150AAE
:1014D00080ED160A3748DFED360A9FED381AC0ED69
:1014E000000ADFED350AC0ED010A80ED020A80ED49
:1014F000030A80ED050A80ED060A80ED070A80EDFB
:10150000080A80ED090A80ED0A0A80ED0B0AF1EE67
:10151000000AC0ED0C0A80ED0D0A80ED0E0A80ED88
:10152000040A80ED0F0A80ED100A80ED110A80EDAB
:10153000161A9FED231A80ED171A80ED190A80ED17
:101540001A0A80ED1B0A80ED1C0A80ED1D0A80ED51
:101550001E0AC0ED1F0ADFED1B0A9FED1B1AC0ED2E
:10156000200A00F8841F80ED011A80ED020A80ED48
:10157000030A80ED040A80ED050A80ED060A017772
:10158000C0ED080A704700009A99B1415000002050
:10159000E65AB43954E3853F0AD7A33B0000000064
:1015A0003333D33F08000020A0000020F0000020CB
:1015B0008459B23D4C0100208BE2073C0AD7A33C82
:1015C000ACC527370000FA4433331341704700009D
:1015D00000EE900A10B5F8EE600A20EE200A10EE38
:1015E000100AFEF782FF41EC100B9FED0A1B05F07D
:1015F000FFFC51EC100BFEF7A3FF00EE100AB5EE56
:10160000C00AF1EE10FA03DCDFED040A30EE200A26
:1016100010BD000000000000008076400000B443D0
:1016200010B5264802F0D0FF25480068016841F057
:101630001001016064222349214803F003FE22487F
:1016400002F08CFF0021204803F05AFA04211E48C2
:1016500003F056FA08211C4803F052FA0C211A48EC
:1016600003F04EFA0021184802F0C0FE042116488B
:1016700002F0BCFE0821144802F0B8FE124940F600
:101680004D000A6850630A6890630968C863FFF7F1
:1016900091FE00F03DF905F091FDFFF747FD7F2138
:1016A0000A4800F055F909480068416841F02001F6
:1016B0004160BDE81040054800F04ABCC803002066
:1016C00014040020680500207C0300202002002074
:1016D00070B50D462DED048B044601780089012973
:1016E00031D000EE100AB8EE400A00BF84ED030AC4
:1016F000F0EE400A9FED5C1A9FED5C0A10EE810A45
:1017000084ED070A9FED5A8AF0EE480AFFF7FAFCCB
:1017100084ED070A0720FFF75BFF84ED080AF0EE6F
:10172000480AFFF7EFFC84ED080A94ED071A94EDE0
:10173000110A504931EE400A10EE100A884209DDC4
:10174000206C401E0DE0C0F5804000EE100AB8EE9F
:10175000C00ACBE710EE100A4749884202D9206C34
:10176000401C206494ED100AF0EE480A4348B8EE9D
:10177000C00A00EE201A84ED121AD0ED021A81EE92
:10178000210A84ED130AFFF7BDFC84ED130A94EDE2
:10179000070A84ED110A687801282CD1A87850BB7B
:1017A000DFED388A3648F6EE000AB0EE680AB0EE91
:1017B000401A04F02BFDA08F44F62C41401C80B24F
:1017C000A087884217D994ED0D0AD4ED070A44F694
:1017D0002061884230EE200A84ED0D0A0BD30020F0
:1017E000DFED290A80EE201A84ED0E1AC4ED0D8A71
:1017F000A0870120A870E878DFED248A9FED249A65
:1018000001280BD002281CD003282AD19FED210AE1
:1018100084ED0A0A0720FFF7DBFE14E0F7EE000A6A
:10182000C4ED010A94ED090A9FED1B1A00EE810A2E
:10183000F0EE480A84ED090AFFF764FC84ED090A1A
:10184000E8E794ED080AF0EE490A20EE280A84ED54
:101850000B0AFFF757FC84ED0B0AFFF733FD84ED0D
:101860000C0ABDEC048B70BDE2FFB33C1058A741DD
:101870000000B44300003443000034C35000002093
:10188000F0000020000000000000FA4334FA8E3C13
:10189000DB0FC94000002042BC74933C72B6FEE7E7
:1018A000014801F0D8B90000B4020020F0B5D1E938
:1018B00001650C692C430D68C6B145F080452C4389
:1018C000D1E90665354391F820704E69406D46EACE
:1018D000076635438E8903EBC30300EBC30045EA7B
:1018E0000645E0E802450023084C0AE044EA854446
:1018F000E6E7D618D55CD6F801601B1D45EA06253B
:1019000020C0CD68655D9D42F3D8F0BD7C720008B3
:1019100008B50548054B064A41680091018803F166
:101920004C00FFF75BFA08BD1C000020E805002012
:10193000307200081FB590ED000A0A468DED000ACE
:10194000012369460148FEF7F3FF1FBD340600205E
:10195000F8B500260446009690F858000D46012878
:101960000BD0012084F858002046FFF74DFA010003
:10197000E06D04D040F010002AE00220F8BD20F411
:10198000885040F00200E06520688268134B1A40DE
:1019900005F080431A4342F000428260104A2068FA
:1019A0000EE0009B5B1C0093934209D3E06D20F096
:1019B000020040F01000E06584F858600120F8BD96
:1019C0008368DB0FEDD1E06D20F0020040F00100F4
:1019D000E06584F858600846F8BD0000C0FFFF3F8E
:1019E00002DE0400704700002DE9F84F4FF00008B8
:1019F0000446CDF800800D4694F85820DFF8EC93AB
:101A0000616947464046012A0AD00126F84A84F80F
:101A1000586041B1296A012905D0A36EEBB129E0D4
:101A20000220BDE8F88F6868092838D1A96A4FF408
:101A3000785041B12B6801F07C0100EA5340084323
:101A4000E96A084302E0296800EA51402168CB6C4A
:101A500013400343CB64606621E0C4E91971A96AAD
:101A6000286A31B101F07C01401E0843E96A08434D
:101A700000E0401E29682B79C1F3846103F01F0345
:101A800099400143A06E401EA066636E43EA0103C5
:101A9000636604D12068C16C11401943C164206899
:101AA00003F04BFC58B995F8250098B12068C1683F
:101AB00095F8262021F4401141EA4251C160206886
:101AC00003F043FC8246206803F037FC5AEA00002A
:101AD0000DD0FBE095F8260095F82410400540EA6B
:101AE00001512068C26822F440121143E6E7A86A57
:101AF00030B1E86A20B195F8250001285ED003E0F6
:101B000095F82500012804D02068C16821F00071F3
:101B100003E02068C16841F00071C16095F83000B1
:101B2000012852D02068016921F002010161AA68F0
:101B300029682068B2F1004F38D003F012FC206809
:101B4000416921F00041416120686969C268C2F3BE
:101B5000C102520091402A69042A44D000EB82005D
:101B60002B68026EDFF88CC203F0F84302EA0C0225
:101B70000B431A4342F00041016620682A69A969B3
:101B800000EB8200026E22F080720A430266297F17
:101B900022682869012923D05FF0000102EB800050
:101BA000026E22F000720A4302668FE0002203F008
:101BB000D8FB2068416941F00041C4E7E06D40F086
:101BC0002000E0654FF00108A8E7D5E90D100143BA
:101BD0002068026922F4FF7242F002021143A5E775
:101BE0004FF00071DAE7002103F09DFB400320680D
:101BF0004FF0000172D003F096FB90FAA0F0B0FA1B
:101C000080F1286842036ED090FAA0F0B0FA80F01C
:101C1000814204D100221146206803F0B1FB01216A
:101C2000206803F080FB400320684FF001015DD085
:101C300003F079FB90FAA0F0B0FA80F12868420333
:101C400059D090FAA0F0B0FA80F0814204D100227D
:101C50000121206803F094FB0221206803F063FB5C
:101C6000400320684FF0020148D003F05CFB90FA7B
:101C7000A0F0B0FA80F12868420344D090FAA0F0B6
:101C8000B0FA80F0814204D100220221206803F0E2
:101C900077FB0321206803F046FB400320684FF0E8
:101CA000030133D003F03FFB90FAA0F0B0FA80F1CB
:101CB000286842032FD090FAA0F0B0FA80F0814259
:101CC00004D100220321206803F05AFB20688168B8
:101CD00011F0010F22D0B6E000E004E003F023FB96
:101CE000C0F384618DE7C0F3846091E703F01BFBD0
:101CF000C0F38461A2E7C0F38460A6E703F013FB9E
:101D0000C0F38461B7E7C0F38460BBE703F00BFB6B
:101D1000C0F38461CCE7C0F38460D0E72A7B2968F4
:101D200050F8B03FC1F3120C23EA0C0302F0180C78
:101D3000314A22FA0CF20A4013430360E96849452C
:101D40007ED1286841031CD090FAA0F1B1FA81F14C
:101D5000491C01F01F0109294FEA403132D80029FE
:101D600012D000BF90FAA0F1B1FA81F101F10101A6
:101D700001F01F0106FA01F609D100BFC0F384612A
:101D800009E0C0F38461E3E7C0F38461EEE790FA11
:101D9000A0F1B1FA81F101F1010101F01F0146EA60
:101DA000816102D1C0F3846003E090FAA0F0B0FA40
:101DB00080F000F1010000F01F0000EB400041EA5C
:101DC00000513AE000290ED090FAA0F1B1FA81F169
:101DD00001F1010101F01F0106FA01F60ED100BF69
:101DE000C0F384610EE0C0F38461F1E700007F403E
:101DF0000040100400F0FF03FFFF070090FAA0F17D
:101E0000B1FA81F101F1010101F01F0146EA81619E
:101E100002D1C0F3846003E090FAA0F0B0FA80F041
:101E200000F1010000F01F002B4A00EB400002EB24
:101E3000005041EA000141F00071AA68206800E00A
:101E400001E003F08EFA25482A68024240D0244877
:101E50008168244B01F0E0719A4202D0224B9A42F1
:101E60001BD10B0219D42268B2F1A04F30D1826885
:101E700041F4000122F0E0720A4382601B481C49D1
:101E80000068B0FBF1F0801C00EB4000800000E037
:101E9000401E00900028FBD11AE0164D164BAA42B6
:101EA00007D1CD0105D422689A4211D041F080714A
:101EB00009E0124DAA420BD14A0209D422689A4283
:101EC00006D041F48001826822F0E0720A43826009
:101ED00084F858704046A4E5000020FE0000088009
:101EE00000030050000021C31000C09048000020F3
:101EF000400D0300000052C700010050000084CBD9
:101F000070B501220446D5024FF09046294630466E
:101F100001F03AFA2068D0F880100B48018021685F
:101F2000D1F8841041802168D1F88810818021681F
:101F3000D1F88C10C18003F06FFD29463046BDE812
:101F40007040002201F020BA00000020704700001D
:101F50002DE9F04104463548806800F01F052068EF
:101F600003F0EBF908BB2168C868C96C00F00040B9
:101F700011F4C07F00D190B194F85800012814D01A
:101F8000012084F858002046FEF776FF02004FF04B
:101F900000030CD084F858301046BDE8F081E06DA5
:101FA00040F02000E0650120F7E70220F5E7E06D52
:101FB000C00504D5206E20F00800206600E02366EE
:101FC000E06D42F20101884340F48050E065184F13
:101FD00021684FF0A046B94201D1304600E00846E2
:101FE000884200D01DB9E06D20F48010E0656020CB
:101FF000086084F858302068B84200D0064686420F
:1020000009D045B1062D06D0072D04D0E06D40F46F
:102010008010E065C0E7C16811F0007FBCD1816825
:10202000044B194041F008018160B5E700030050FE
:1020300000010050C0FFFF7F704770472DE9F04757
:10204000044690F858009CB00E464FF00009012855
:1020500015D0012084F858000025179518952068A0
:102060004FF0A04840450ED1284F0097384603F066
:102070006CF98246206803F068F960B10EE0022036
:102080001CB0BDE8F087E06D40F02000E06584F80A
:1020900058500120F4E7BAF1000F09D0E06D40F08C
:1020A0002000E0654FF0010984F858504846E7E702
:1020B0001748326840F61F71002A826822F4604295
:1020C00016D094F8383042EA433273681A4382607B
:1020D000D8F80820BB6802F0010203F001031A439C
:1020E000E2D1B36832681A4383688B431A430BE02A
:1020F0008260D8F80820BB6802F0010203F00103F7
:102100001A43D1D182688A438260CDE70001005032
:1021100000030050704770472DE9F05F04460068E7
:1021200006684568DFF854B2DBF8080000F01F07C6
:10213000B0070ED5A8070CD5E06DC00603D4E06D3E
:1021400040F40060E0652046FFF74CFC2168022067
:102150000860DFF82CA270074FF0A04801D568078F
:1021600003D4300737D5280735D5E06DC00603D432
:10217000E06D40F40070E065206803F0EAF820B3F9
:102180002068504501D1424600E00246824208D014
:102190003FB1052F05D0092F03D0504503D141464B
:1021A00002E0C16801E00146C96889040DD40168F4
:1021B00009070AD503F0C5F858B3E06D40F01000E8
:1021C000E065206E40F0010020662046FFF7A2FF88
:1021D00021680C200860B00601D5A80603D470065B
:1021E00058D5680656D5E06DC00603D4E06D40F4BE
:1021F0000050E0652068C16C11F4C07F1AD0002146
:10220000894603F0A6F802462068504514D143469B
:1022100013E02068416821F00C014160E06D20F47A
:102220008070E065E06DC004CFD4E06D40F0010047
:10223000E065CAE70121E3E70346834208D03FB1E6
:10224000062F05D0072F03D0504503D1414602E0A9
:10225000C16801E00146C968B9F1000F14D08B01D3
:1022600002D58AB18A040FD4026852060CD58902BD
:102270000AD403F05EF8E8B3E06D40F01000E065CA
:10228000206E40F0010020662046FFF739FE2168ED
:102290006020086030060BD5280609D5E06D40F4B3
:1022A0008030E065204600F067F9216880200860F2
:1022B000F0050CD5E8050AD5E06D40F40030E06586
:1022C0002046FFF7B9FE21684FF480700860B00522
:1022D0000CD5A8050AD5E06D40F48020E0652046C5
:1022E000FFF7ABFE21684FF400700860F0062ED5B2
:1022F000E80600E008E02AD5E06BD0B1AFB1DBF82A
:10230000080000F4604013E02068416821F060019B
:102310004160E06D20F48050E065E06DC005B3D40D
:10232000E06D40F00100E065AEE72068C068C007DE
:1023300050B1E06D40F48060E065206E40F0020036
:1023400020662046FFF7E7FE216810200860700530
:1023500012D5680510D5E06D40F48040E065206E30
:1023600040F00800206621684FF480600860204635
:10237000BDE8F05FFFF7EABDBDE8F09F0003005045
:1023800000010050F8B54FF0000504002E460095FE
:1023900002D0E06D10B107E00120F8BD204600F04A
:1023A000EDF8266684F8586020688168C1F34071B2
:1023B00019B18168684A1140816020688168C1F361
:1023C000007189B98168654A114041F0805181608E
:1023D000634864490068B0FBF1F04000801C00E0F5
:1023E000401E00900028FBD120688168C1F3007175
:1023F00041B9E16D41F01001E165216E41F001014B
:102400002166012502F09DFFE16DC90600D430B1BF
:10241000E06D40F01000E06501252846F8BDE06D54
:1024200020F4807040F00200E0652068806810F0C1
:10243000010F11D14FF0A04080684B4900F001001E
:10244000896801F00101084306D148486168826843
:1024500022F47C120A438260E168E06B627F0843E9
:10246000A16841EA4231084394F8241040EA01404F
:10247000012904D1218D3E4A02EB41410843E16A22
:1024800029B101F47871226B014342EA010022680C
:10249000D168384B19400143D16020680169626BF3
:1024A00021F0406111430161206802F042FF70BBDE
:1024B000207F94F83810800340EA41022168C86800
:1024C00044F2020398431043C86020690028206842
:1024D00001690AD041F480310161206850F8C01FC1
:1024E00022696FF30D01114307E021F4803101618E
:1024F000206850F8C01F6FF30D01016094F8400090
:1025000001280CD02068016921F001010161606996
:1025100001282068016B21F00F0111D013E0D4E9EC
:1025200011010843D4E913121143084321680A69D1
:1025300040F2FC739A43104340F001000861E6E763
:10254000226A521E11430163E06D20F0020040F048
:102550000100E06561E70000C0FFFF5FC0FFFF7F93
:1025600048000020400D030000010050000300500F
:102570000000FEFF0740F0FF7047000010B598B064
:102580000446142111A8FDF77BFE44216846FDF79F
:1025900077FE2068B0F1A04F2ED14FF4004000909C
:1025A00080030F90684600F0F3FF08B1FFF776F95B
:1025B0001248C16C41F40051C164C16C01F4005176
:1025C0001691C16C41F00101C164C06C11A900F009
:1025D000010016900F2011900320129000201390FC
:1025E0004FF0904000F0ACFD00221146122000F0A8
:1025F00037FF122000F026FF18B010BD0010024077
:1026000030B590F821300022012B06D0416A41F00C
:10261000020141620122104630BD8C690B680D69D0
:1026200023434C6800682C4323434C6923438C6844
:10263000C96823430B430168024C21400B430360EC
:10264000E9E7000000F887FF70B5040004D094F8B3
:102650002100002510B106E0012070BD84F8205053
:10266000204600F00BF865626560A560E5602561B5
:102670000120656184F82100002070BD08B5006864
:102680000649884208D10648816C41F008018164FE
:10269000806C00F00800009008BD0000000C0240B3
:1026A0000010024010B590F8253000210122022BC5
:1026B00003D00421C163012122E003681C6824F0D7
:1026C0000E041C60836C1C6824F480741C60036816
:1026D0001C6824F001041C6090F84430046C03F082
:1026E0001F0302FA03F36360D0E913345C60436DA7
:1026F00033B11C6824F480741C60D0E916345C602B
:1027000080F82520002280F82420084610BD70B5EE
:1027100090F82520002401212346022A07D0042214
:10272000C26380F8251080F82430012429E0026873
:10273000156825F00E0515600268156825F001057D
:102740001560826C156825F48075156090F844203A
:10275000056C02F01F0201FA02F26A60D0E913254B
:102760005560426D32B1156825F480751560D0E969
:102770001625556080F8251080F82430816B01B152
:102780008847204670BDC06B7047F0B4016C0C6880
:1027900001680D6890F8442002F01F06042202FA36
:1027A00006F3234211D06B070FD50B689B0603D4A9
:1027B0000B6823F004030B6090F8441001F01F0134
:1027C0008A40016C4A60016B1DE0022303FA06F7A0
:1027D00027424FF0000C4FF0010218D0AF0716D57A
:1027E0000C68A40605D40C6824F00A040C6080F878
:1027F000252090F8441001F01F018B40016C4B60C4
:1028000080F824C0C16A00291AD0F0BC0847082308
:10281000B340234214D02B0712D50B6823F00E03CC
:102820000B6090F84410036C01F01F0102FA01F1F3
:102830005960C26380F8252080F824C0416BE2E72C
:10284000F0BC704770B504000CD02B4A21681420EE
:10285000914209D2294A0A44B2FBF0F08000606438
:1028600027480AE0012070BD234A52420A44B2FBC5
:10287000F0F080006064204808382064022084F86A
:1028800025000A6847F6F0708243D4E90203184332
:10289000D4E904352B431843A3691843E36918436B
:1028A000236A1843104308602046FEF731FDA068F4
:1028B0000025B0F5804F00D16560A16C20790860DB
:1028C000D4E9130141606068401E032808D82046FF
:1028D000FEF73EFD606D0560D4E91601416002E03F
:1028E0006565A565E565E563012084F8250084F844
:1028F0002450002070BD000008040240F8FFFDBF16
:102900000000024070B5044690F82400002501281C
:102910000CD0012084F8240094F825600020012EBA
:1029200006D084F824000225284670BD022070BD20
:10293000022684F82560E0632068066826F0010618
:1029400006602046FEF716FD206B0028206801680F
:1029500002D041F00E0106E021F004010160206880
:10296000016841F00A010160A06C0168C90303D548
:10297000016841F480710160606D18B1016841F433
:10298000807101602068016841F001010160CBE7BE
:1029900070B5044600F0FEFC0546601C02D00448F9
:1029A0004068044400F0F6FC401BA042FAD370BD1E
:1029B0003C00002030B590F85C30012B07D0022B92
:1029C00005D0016E41F002010166012030BD0468AE
:1029D000A36D4D0701D0DD071DD011F0380F01D0D8
:1029E0009D0718D511F4E07F01D05D0713D511F4D0
:1029F000F05F01D01D070ED511F4604F01D0DD0648
:102A000009D511F4403F01D09D0604D511F47C0F87
:102A100005D05D0603D4E56D45F00105E5654C077D
:102A200001D0DC071DD111F0380F01D09C0718D45C
:102A300011F4E07F01D05C0713D411F4F05F01D0F2
:102A40001C070ED411F4604F01D0DC0609D411F438
:102A5000403F01D09C0604D411F47C0F06D05B06E5
:102A600004D50368DC6D44F00204DC650B0604D574
:102A7000036853F8DC4F14431C60CB0504D503688E
:102A800053F8E04F14431C600068426D0A434265EE
:102A9000002030BD70B5044690F85C00022803D0D9
:102AA000206E40F0080007E02068D0F8C4309B0298
:102AB00005D5206E40F400702066012070BDD0F86E
:102AC000C400C0F301452B462046FEF7EFFE216807
:102AD0000120A840C1F8CC00A065002070BD10B551
:102AE00090F85C20012A07D0022A05D0016E41F03F
:102AF00002010166012010BD0A687AB10B7B0A69E8
:102B00000C7A42EA43734A69406C496842EA84722B
:102B100000EBC100C0E90032002010BD0B7A4A6909
:102B20000C8A42EA83720B7B006CDB06496843EA3D
:102B300004431A4340F82120EEE770477047000035
:102B4000F0B590F85C400025022C03D0016E41F0F6
:102B5000080160E00468402946D0D4F89860360740
:102B600056D0D4F89860F60104D5D4F88060F60504
:102B700000D50125D4F89840C4F301246619C46C2B
:102B800006EBC60504EBC504256815F080455560C5
:102B9000256843D025F06045156025682C4F05F069
:102BA0000055956020CC05F00045156134F8045BB4
:102BB000ADB2D56154F8045CC5F30345D56054F853
:102BC000045C05F48015556154F8045C05F40015A7
:102BD000956154F8045CC5F30665156254F8045C0D
:102BE000ED0F5562002522E0D4F8906036070FD033
:102BF000D4F89060F60104D5D4F88060B60500D50D
:102C00000125D4F89040C4F301246619846CB7E719
:102C1000016E41F4807101660120F0BDC5F38A4563
:102C2000BAE700BF14F805C003F805C06D1CD2F860
:102C30000CC017F80CC0AC45F4D80068402903D08C
:102C4000C0F89C600020F0BDC0F89460FAE7000076
:102C50007C72000870472DE9F05F04460068016D42
:102C6000426D01F4E05102EA0108016D426D01F08C
:102C7000070102EA0109016D426D01F0380102EA23
:102C8000010A016D476D01F471010F40016D426D44
:102C900001F46021456D02EA010B016DCE4371061E
:102CA00007D4E943490604D4402101652046FFF7D3
:102CB000D1FFF0050ED4E843C0050BD42068D0F84E
:102CC000D820D0F8E01011404FF480720265204601
:102CD00000F032FAB8F1000005D0216808654146DD
:102CE000204600F02BFAB9F1000005D021680865F4
:102CF0004946204600F0AAF9BAF1000005D0216843
:102D000008655146204600F0C5F9B00509D4E843EE
:102D1000800506D421684FF400700865204600F055
:102D20000EFA30060DD4E84300060AD42068D0F825
:102D3000D420D0F8DC10114080220265204600F03B
:102D4000FCF9B00409D4E843800406D421684FF4A8
:102D500000500865204600F0EEF9300409D4E8433D
:102D6000000406D421684FF400400865204600F0B6
:102D7000E1F970040AD4E843400407D421684FF411
:102D800080400865206E40F080002066BBF10000A6
:102D900005D02168086559462046FFF7CFFE27B1C8
:102DA00020680765206E38432066206E002802D018
:102DB0002046FFF7C2FEBDE8F09F00002DE9F0417C
:102DC000040006D0DFF8E88194F85C00002518B113
:102DD00007E00120BDE8F08184F85D50204600F056
:102DE000EFF82068816921F01001816100F0D2FACA
:102DF0000646032705E000BF00F0CCFA801B0A2836
:102E000011D8206880690007F6D42068816941F0F4
:102E10000101816100F0BEFA06460BE000F0BAFA4B
:102E2000801B0A2806D9206E40F00100206684F835
:102E30005C70CEE720688069C007EFD020688169A8
:102E400041F0020181612168414502D15949606820
:102E50000860207C01282068816937D041F040015A
:102E60008161607C01282068816932D021F4804131
:102E70008161A07C0128206881692DD041F48051B6
:102E8000816120688169A26821F4407111438161E8
:102E90002068816921F0A40181612068016921F025
:102EA00010010161E068012819D010B302281BD07D
:102EB0002068816941F0800181612068016941F0E9
:102EC00010010161E06803280ED012E021F04001FA
:102ED000C6E741F48041CBE721F48051D0E7206878
:102EE000816941F0040103E02068816941F020011B
:102EF0008161207EE26940066FF0FF0101EB022252
:102F0000A0F100701043226AA38A521E10430A02E5
:102F100002EB034318432368D861A068B0F5407FF3
:102F200010D1D4E90A0301EB0321401E0843216BB1
:102F3000131303EB01110843A18C02EB0141084379
:102F40002168C860206850F8C01FE26B114301601F
:102F500019482064216851F8802FA38E22F4F812BA
:102F600042EA03420A60144970316164216851F8F1
:102F7000802F94F8383022F0706242EA03620A60CF
:102F80000D49B031A1640D49E1640C49D831216586
:102F90000A49F031616500F5547120C08842FCD3C4
:102FA000A5652566012084F85C00002012E700007A
:102FB000006400400065004000A4004088A5004077
:102FC00010B598B00446142111A8FDF759F9442111
:102FD0006846FDF755F91B492068884230D18014B6
:102FE000009040030C90684600F0D2FA08B1FEF75A
:102FF00055FC1548816D41F000718165816D01F0CE
:1030000000711691C16C41F00101C164C06C11A93D
:1030100000F0010016904FF4C05011900220129061
:1030200000201390149009201590C00600F088F835
:1030300000221146152000F013FA152000F002FAC4
:1030400018B010BD006400400010024010B5012906
:103050001AD10E4B0E4A4021FFF772FD002813D102
:103060000B48416800290FD1C16808290CD10068BC
:10307000102809D1054810210E3808228180BDE8AA
:1030800010400E30FEF770B810BD00003200002076
:1030900064060020704790F85C10012905D0016E8D
:1030A00041F00401016601207047022180F85C10A4
:1030B00001688A6922F001028A61002101660846DE
:1030C000704710B590F85C200021022A04D0016EF0
:1030D00041F0080101660FE00268936943F00103C3
:1030E0009361032302680AE00A2907D9016E41F0BF
:1030F0000101016680F85C30012010BD491C946913
:10310000E407F1D09469002124F01004946102686E
:1031100002E00A29EAD8491C94692407F9D4916984
:1031200041F00201916100218165012180F85C106C
:10313000002010BD70477047704770477047704758
:103140002DE9F04FDFF82092002301260324A9F196
:10315000040B85B00F2709F1040AABF1040EFAE065
:1031600006FA03F52A407CD091F804C00CF0030C59
:10317000BCF1010F02D0BCF1020F26D1D0F808C07B
:10318000CDF800C04FEA430C04FA0CF8CDF810C09B
:10319000DDF800C02CEA080CCDF800C0D1F80C8096
:1031A000DDF810C008FA0CF8DDF800C048EA0C0899
:1031B000C0F80880D0F804C02CEA050C0D79C5F3DE
:1031C00000159D4045EA0C0545600D79ED43AD07BE
:1031D0000ED0C5684FEA430804FA08FC25EA0C053E
:1031E000D1F808C00CFA08FC4CEA050CC0F80CC079
:1031F0000D7905F00305022D16D1DD0800EB850CD5
:10320000CDF808C0DCF820805D074FEAD56C07FADE
:103210000CF528EA05080D6905FA0CF5DDF808C07B
:1032200045EA0805CCF8205005684FEA430CCDF874
:1032300008C004FA0CFC25EA0C0591F804C00CF057
:103240000308DDF808C008FA0CF848EA0508C0F8D9
:1032500000804D6815F4403F7CD0444DD5F860C0E7
:1032600000E077E04CF0010CC5F860C02D6E23F053
:10327000030C05F0010500953D4D65440295AD68D0
:103280004FEA837C4FEA1C7807FA08FC25EA0C0514
:10329000B0F1904F06D0DFF8DCC0604505D14FF0AB
:1032A000010C20E04FF0000C1DE0DFF8CCC06045C1
:1032B00002D14FF0020C16E0DFF8C0C0604502D129
:1032C0004FF0030C0FE0DFF8B8C0604502D14FF0BB
:1032D000040C08E0DFF8ACC0604502D14FF0050CEB
:1032E00001E04FF0060C0CFA08FC4CEA050C029DBC
:1032F000C5F808C0D9F80050CC46D1F804809543F1
:103300005FEAC82800D51543CCF80050DAF8005021
:10331000D446D1F8048095435FEA882800D5154348
:10332000CCF80050DBF80050DC46D1F8048095431F
:103330005FEA883800D51543CCF80050DEF800501D
:10334000F446D1F8048095435FEAC83800D51543A8
:10335000CCF800505B1C0A6832FA03F57FF400AF2A
:1033600005B0BDE8F08F00000804014000100240E5
:10337000000001400004004800080048000C00481C
:1033800000100048001400480AB181617047816252
:103390007047000001488068704700003C00002032
:1033A0000248816842681144816070473C000020F7
:1033B00010B50024032000F073F80F2000F008F887
:1033C00008B1012401E000F025F8204610BD0000FE
:1033D00070B50E4E05460024706898B14FF47A71AE
:1033E000B1FBF0F00A490968B1FBF0F000F046FFCC
:1033F00040B9102D06D200222946501E00F030F8A8
:10340000356000E00124204670BD00003C00002033
:10341000480000200A4882B0016E41F001010166B7
:10342000016E01F001010091816D41F080518165D3
:10343000806D00F08050009002B000F0A1B8000054
:1034400000100240002809DB00F01F02012191401A
:103450004009800000F1E020C0F800117047000032
:10346000F0B40E4B1B680C46C3F30223C3F10705EF
:10347000042D00D90425191D072901D2002300E0DD
:10348000DB1E012606FA05F1491E214099409E40A7
:10349000761E16403143F0BC03F099BD0CED00E000
:1034A000064900F0070208684FF6FF03184040EA9B
:1034B0000220034A10430860704700000CED00E052
:1034C0000000FA052B492C4B0A6832214A432B494C
:1034D00040B1B0F5007F086829D020F4C06040F406
:1034E00080602CE00868C0F34120022804D051F825
:1034F000800F20F4807022E0D1F8800020F48070EA
:10350000C1F88000086820F4C06040F400700860D2
:10351000B2FBF3F0401C00E0401E4A69520501D5A1
:103520000028F9D1486940050AD503207047C0F347
:103530004120022806D051F8800F40F480700860C6
:1035400000207047D1F8800040F48070C1F88000FE
:10355000086820F4C06040F400700860B2FBF3F02B
:10356000401C00E0401E4A695205DBD50028F9D115
:10357000D8E700004800002040420F0000700040E3
:103580000248816841F480418160704700700040CA
:103590002DE9F8430446006800269D4D00035ED5E2
:1035A000A86D0027C00008D4A86D40F08050A86521
:1035B000A86D012700F080500090DFF85892D9F8EC
:1035C000001041F48071C9F80010FFF7E3FE804657
:1035D00006E000BFFFF7DEFEA0EB080002282BD8B4
:1035E000D9F80000C005F5D5D5F8900010F440706A
:1035F00014D0216C814211D0D5F89000D5F89010EC
:1036000020F4407041F48031C5F89010D5F8901046
:1036100021F48031C5F89010C5F89000C00711D092
:10362000FFF7B8FE804641F2883907E0FFF7B2FEA7
:10363000A0EB0801494501D903260BE0D5F890001D
:103640008007F3D5D5F89000216C20F44070084332
:10365000C5F890001FB1A86D20F08050A8652078B3
:10366000C00707D0D5F88800616820F00300084340
:10367000C5F888002078800707D5D5F88800A168AC
:1036800020F00C000843C5F888002078400707D5D3
:10369000D5F88800E16820F030000843C5F88800BC
:1036A0002078000707D5D5F88800216920F0C000F0
:1036B0000843C5F888002078800607D5D5F888002B
:1036C000616920F440600843C5F88800207840060E
:1036D00007D5D5F88800A16920F440500843C5F803
:1036E00088002078000607D5D5F88800E16920F425
:1036F00040400843C5F888002088C00507D5D5F8A4
:103700008800216A20F440300843C5F888002088EA
:10371000800507D5D5F88800616A20F44020084369
:10372000C5F88800208840050FD5D5F88800A16A23
:1037300020F440100843C5F88800A06AB0F5801F47
:1037400003D1E86840F48010E860208800050FD5B8
:10375000D5F88800E16A20F440000843C5F88800E5
:10376000E06AB0F5800F03D1E86840F48010E860AB
:103770002088C0040FD5D5F88800216B20F0407058
:103780000843C5F88800206BB0F1807F03D1E8685A
:1037900040F48010E86020884FF0006180040ED56E
:1037A000D5F88800626B20F040601043C5F88800AF
:1037B000606B884203D1E86840F48010E86020889C
:1037C00040040ED5D5F88800A26B20F0406010436D
:1037D000C5F88800A06B884203D1E86840F48010E7
:1037E000E860208800040FD5D5F88800E16B20F050
:1037F00040500843C5F88800E06BB0F1805F03D10A
:10380000E86840F48030E8603046BDE8F8830000A6
:1038100000100240007000402DE9F0470E46050000
:103820004FF0000725D0DFF8AC81D8F8000000F099
:103830000F00B0420CD2D8F8001021F00F01314334
:10384000C8F80010D8F8000000F00F00B04210D106
:103850002968614CC80741F2883A5AD06868DFF895
:103860007C91032808D0022820682DD0400500282C
:103870002CDB0120BDE8F08720688001F9D5E068E5
:1038800000F00302E068C0F30310401C032A19D0C3
:10389000534A00BFB2FBF0F0E268C2F30622504385
:1038A000E268C2F34162521C5200B0FBF2F048459C
:1038B00017D9A06810F0F00F0CD0880711D5A868B0
:1038C00040B10EE0474AE5E78003D0E700F0B6F8E4
:1038D000484506D9A06820F0F00040F08000A060C4
:1038E0008027A068696820F003000843A060FFF704
:1038F00051FD814606E000BFFFF74CFDA0EB09013A
:1039000051453AD8A068696800F00C00B0EB810F0F
:10391000F2D12868810714D5400703D5A06840F488
:10392000E060A0602878000705D5A06820F460500A
:1039300040F4E060A060A068A96820F0F0000843AF
:1039400004E0802F03D1A06820F0F000A060D8F838
:103950000010404601F00F01B14216D9016821F074
:103960000F0131430160FFF715FD074607E000BF77
:10397000FFF710FDC11B514501D903207AE7D8F8A4
:10398000000000F00F00B042F2D12878400705D5C2
:10399000A068E96820F4E0600843A0602878000788
:1039A00006D5A068296920F4605040EAC100A060F3
:1039B00000F044F8A1680C4AC1F30311515C01F016
:1039C0001F01C8400949086009480068BDE8F04780
:1039D000FFF7FEBC002002400010024000B4C40407
:1039E0000024F40000127A00B4720008480000209D
:1039F0003C0000200548064900688968054AC1F373
:103A00000221515C01F01F01C840704748000020AE
:103A100000100240C4720008054806490068896821
:103A2000054AC1F3C221515C01F01F01C840704733
:103A30004800002000100240C4720008184910B568
:103A40008868C0F381021748012A0BD08A684310A6
:103A5000C2F38102022A06D08A68C2F38102032AD5
:103A600003D0002010BD184610BDCA6802F0030440
:103A7000CA68C2F30312521C032C02D0B0FBF2F04E
:103A800001E0B3FBF2F0CA68C968C2F306225043F2
:103A9000C1F34161491C4900B0FBF1F010BD0000C9
:103AA000001002400024F4002DE9F84304007AD00D
:103AB0002078F84DC00747D0A868E96800F00C00EE
:103AC00001F003010C2802D0082817D001E00329D7
:103AD00014D06068B0F5803F17D0B0F5A02F2868EB
:103AE00017D020F480302860286820F480202860D7
:103AF0006068E0B1FFF74EFC064614E028688003DA
:103B000022D560680028D2D01EE0286840F48030BA
:103B1000EDE740F480202860F7E700BFFFF73AFCAC
:103B2000801B642870D828688003F7D50CE0FFF765
:103B300031FC064605E000BFFFF72CFC801B642823
:103B4000F0D828688003F7D4207880074CD5A8687F
:103B5000E96800F00C0001F003010C2802D00428F1
:103B60000DD001E002290AD0E068002828682BD097
:103B700040F480702860FFF70DFC064619E02868C5
:103B8000400502D5E068002891D06868217C20F0CB
:103B9000FE4040EA01606860BF480068FFF718FC1B
:103BA000002800D120E072E1FFF7F4FB801B02281F
:103BB000B8D828684005F7D56868217C20F0FE4019
:103BC00040EA016068600FE020F480702860FFF731
:103BD000E1FB064605E000BFFFF7DCFB801B022887
:103BE000A0D828684005F7D42078000729D5606957
:103BF0000028D5F8940013D040F00100C5F89400D7
:103C0000FFF7C8FB064606E090E000BFFFF7C2FBE7
:103C1000801B022886D8D5F894008007F6D510E0DE
:103C200020F00100C5F89400FFF7B4FB064604E05D
:103C3000FFF7B0FB801B022878D8D5F894008007E6
:103C4000F6D42078400761D5A86D0026C00008D4BE
:103C5000A86D40F08050A865A86D012600F0805046
:103C600000908E480168C90511D40168804641F46E
:103C700080710160FFF78EFB074604E0FFF78AFBC7
:103C8000C01B022852D8D8F80000C005F6D5A0689D
:103C9000012815D00528D5F8900016D020F0010095
:103CA000C5F89000D5F8900020F00400C5F8900009
:103CB000A06841F28838B8B1FFF76CFB07460EE008
:103CC000D5F8900040F00100F0E740F00400C5F89E
:103CD0009000F5E7FFF75EFBC11B414526D8D5F8FC
:103CE00090008007F6D50CE0FFF754FB074604E090
:103CF000FFF750FBC11B414518D8D5F8900080074D
:103D0000F6D41EB1A86D20F08050A86520788006FA
:103D100029D5A0690028D5F8980013D040F00100FB
:103D2000C5F89800FFF736FB064606E075E000BFD1
:103D3000FFF730FB801B02286FD8D5F8980080076A
:103D4000F6D510E020F00100C5F89800FFF722FB3F
:103D5000064604E0FFF71EFB801B02285DD8D5F85D
:103D600098008007F6D4E069F0B3A968C1F3810137
:103D700003295DD00228286820F08070286003D0D5
:103D8000FFF708FB04464BE0FFF704FB064604E0A0
:103D9000FFF700FB801B02283FD828688001F7D47A
:103DA000F4E908016FF00F0202EB01110843218AC8
:103DB0005204490802EB4151A26841EA022108433A
:103DC000217D4FF07E42490802EB41610843217B8F
:103DD00040EAC160E968324A11400843E860286857
:103DE00040F08070286000E05EE0E86840F080709D
:103DF000E860FFF7CFFA044605E000BFFFF7CAFA14
:103E0000001B022809D828688001F7D54CE000BFC4
:103E1000FFF7C0FA001B022802D90320BDE8F8838F
:103E200028688001F4D4E8681E490840E8603BE057
:103E30000128F3D0E868226A00F00301914226D1FC
:103E4000616A00F0F0020901103991421FD1A26AA3
:103E500000F4FE41B1EB022F19D194F82C2000F0B0
:103E60007841B1EBC26F12D1218E00F4C002490833
:103E70004905A1F50011914209D194F8341000F0E0
:103E8000C06049084906A1F1007181420CD00120AF
:103E9000C4E70000001002403C0000200070004019
:103EA0000C809F01FCFFEEFE0020B7E770B5040018
:103EB00009D0606A002540B125616561A56294F86A
:103EC0005D0040B10CE0012070BD6068B0F5827FFC
:103ED000F4D0E561F2E784F85C50204600F05CF82D
:103EE000022084F85D002068016821F04001016033
:103EF000E1684FF4E062914201D9002001E04FF403
:103F00008050B1F5706F02D0914200D0A562A188B7
:103F1000228901F4827102F404421143227C02F0EE
:103F200002021143227D02F001021143228B02F4AE
:103F300000721143227F02F03802114394F82020CE
:103F400002F080021143228D02F4005211432268D4
:103F50001160A169042202EA114194F8242000F4BE
:103F6000805002F01002114394F8342002F008024D
:103F70001143A28902F47062114301432068416039
:103F80002068C16921F40061C1612566012084F8BF
:103F90005D00002070BD0000F0B587B0044614211C
:103FA0006846FCF76DF91849206888422AD11748FD
:103FB000016E41F480510166016E01F4805105915A
:103FC000C16C41F00101C164C06C022500F0010028
:103FD0000590A02000900024CDE901540526CDE9EC
:103FE00003464FF0904769463846FFF7A9F840204E
:103FF000CDE900050320CDE9024069460496384624
:10400000FFF79EF807B0F0BD0030014000100240FD
:104010002DE9FF5F044690F85C0000260E9F1D46C8
:1040200093464FF0010901280FD04FF0010A84F8A0
:104030005CA0FFF7AFF9804694F85D006168012845
:104040000DD0B1F5827F08D103E0022004B0BDE8B5
:10405000F09FA16809B9042801D0022609E101985E
:10406000002876D0BBF1000FFBD0002DF9D094F8DA
:104070005D00042802D0052084F85D000020206641
:10408000C4F840B0A4F84650A4F844500199A16384
:10409000E587A587E0642065E0684FF4E061884229
:1040A00001D8012D04D92068426822F4805203E02F
:1040B0002068426842F480524260206802685206DA
:1040C00003D4026842F040020260E06888426068FF
:1040D00048D908B1012D3DD1A06B21680088C86086
:1040E000A06B801CA063E08F401EE08732E0206858
:1040F000816889070FD5E18F69B1B9F1010F0AD144
:10410000A16B0988C160A06B801CA063E08F401E7A
:10411000E0874FF0000920688168C9070FD0B4F824
:10412000461061B1C068216C0880206C801C20643E
:10413000B4F84600401EA4F846004FF00109FFF70E
:1041400029F9A0EB0800B84204D3781C02D003265A
:104150008DE08AE0E08F0028C9D1B4F8460000283D
:10416000C5D177E008B1012D6DD1E08F0128A06B9A
:1041700008D921680088C860A06B801CA063E08F0C
:10418000801E07E0216800780873A06B401CA063C4
:10419000E08F401EE08756E02068816889071AD5C5
:1041A000E18FC1B1B9F1010F15D1E18F0129A16BE7
:1041B00007D90988C160A06B801CA063E08F801EB6
:1041C00006E009780173A06B401CA063E08F401EDD
:1041D000E0874FF0000920688168C90728D0B4F84B
:1041E000461029B3B4F84610012914D9C068216CCF
:1041F0000880206C801C2064B4F84600801EA4F85F
:104200004600B4F84600012810D82068416841F4FF
:10421000805141600AE0007B216C0870206C401CDA
:104220002064B4F84600401EA4F846004FF001098F
:10423000FFF7B0F8A0EB0800B84202D3781C02D018
:1042400085E7002F83D0E08F0028A5D1B4F8460081
:104250000028A1D142463946204601F0E5FE10B1C2
:10426000012620202066206E08B1012601E084F896
:104270005DA0002084F85C003046E7E610B5401EE3
:10428000B0F1807F01D3012010BD4FF0E0246061C8
:104290000F21601702F09BFE0020A0610720206123
:1042A000002010BD704770477047000030B590F88F
:1042B0003C20012A42D0012280F83C20CA688B6849
:1042C00022F440721A434B6822F480621A430B684E
:1042D00022F400621A430B6922F480521A434B699C
:1042E00022F400521A430B6B22F480421A430B8BC8
:1042F00022F4702242EA0342CB6922F080521A4330
:104300000F4D03680024AB4202D00E4DAB4210D1DA
:104310000D8D22F4700242EA05520D6A22F080727D
:104320002A434D6A22F000722A43C96A22F00052E1
:104330000A435A6480F83C40002030BD022030BD62
:10434000002C014000340140704770477047000066
:10435000F0B590F83C20012A3AD0012580F83C5075
:10436000022280F83D2003685A689C68194E1A4F53
:10437000B34201D0BB4204D122F4700C4A6842EA35
:104380000C02DFF858C002EA0C02D1F800C04CEA77
:10439000020CC3F804C00268B2420DD0B2F1804FE3
:1043A0000AD00F4B9A4207D00E4B9A4204D0BA4221
:1043B00002D00D4B9A4204D1896824F0800319433E
:1043C000916080F83D50002180F83C100846F0BD17
:1043D0000220F0BD002C0140003401408FFFFFFDA2
:1043E00000040040000800400040014010B50446B1
:1043F000022249B104290ED0082913D094F84700AD
:10440000012816D0012010BD94F844000128F9D1EC
:1044100084F844200FE094F845000128F2D184F894
:10442000452008E094F846000128EBD184F84620A6
:1044300001E084F847200422206802F01EF820687A
:10444000416C41F4004141641049206888420ED01B
:10445000B0F1804F0BD00E49884208D00D498842F8
:1044600005D00D49884202D00C49884207D18168A5
:104470000B4A1140062906D0B1F5803F03D00168F0
:1044800041F001010160002010BD0000002C01403E
:10449000000400400008004000340140004001409A
:1044A00007000100704710B5040003D094F83D00E8
:1044B00010B107E0012010BD002084F83C00204628
:1044C00000F022F8022084F83D00211D206801F050
:1044D00069FF012084F8480084F83E0084F83F001A
:1044E00084F8400084F8410084F8420084F84300D6
:1044F00084F8440084F8450084F8460084F84700B6
:1045000084F83D00002010BD08B5114A016811482B
:10451000914208D1016E41F400610166006E00F421
:104520000060009008BD0C4A9142FBD1816D41F0C2
:1045300020018165806D002200F02000009011466E
:104540003720FEF78DFFBDE808403720FEF77ABF21
:10455000002C0140001002400014004090F83D1073
:10456000012901D001207047022180F83D10006828
:104570000F4988420ED0B0F1804F0BD00D498842D0
:1045800008D00D49884205D00C49884202D00C4918
:10459000884207D181680B4A1140062906D0B1F53F
:1045A000803F03D0016841F00101016000207047A5
:1045B000002C01400004004000080040003401408D
:1045C000004001400700010090F83D10012901D092
:1045D00001207047022180F83D100168CA6842F04E
:1045E0000102CA600068104988420ED0B0F1804FC5
:1045F0000BD00E49884208D00D49884205D00D499C
:10460000884202D00C49884207D181680B4A114088
:10461000062906D0B1F5803F03D0016841F00101C1
:104620000160002070470000002C014000040040A1
:104630000008004000340140004001400700010034
:1046400070B5044690F83C000025012814D00126DE
:1046500084F83C60022084F83D0022689068364B64
:10466000184020F47F409060086870282ED010DC3D
:1046700010F00F0F03D021E04FF0020070BD4FEAA1
:104680002012072A1AD2DFE802F0525252524A3858
:1046900040002A4BC21A984249D009DCB0F5805F2D
:1046A0000DD0B0F5005F1CD0B0F1101F06D13EE078
:1046B000102A3CD0202A3AD0502A38D0012584F83C
:1046C0003D60002084F83C00284670BDCB68D1E9ED
:1046D0000121206801F0DEFE2068816841F0770149
:1046E00009E0CB68D1E90121206801F0D3FE206800
:1046F000816841F480418160E1E7CA6849682068C7
:1047000002F072F85021206806E0CA684968206803
:1047100002F07BF86021206801F0C6FECFE7CA688E
:104720004968206802F060F840212068F4E72268B8
:1047300001461046F0E7000088FFCEFF2000100081
:1047400070472DE9F04104460068C66805694FF0DE
:104750000007A90713D5B10711D5F91E0161012082
:104760002077206880698007204602D0FFF7E8FFA5
:1047700004E000F0FFF8204600F0C1F92777680751
:1047800016D5700714D521686FF004000861022067
:1047900020772068806910F4407F204602D0FFF720
:1047A000CFFF04E000F0E6F8204600F0A8F92777F4
:1047B000280715D5300713D521686FF00800086168
:1047C000042020772068C0698007204602D0FFF7C8
:1047D000B7FF04E000F0CEF8204600F090F927770C
:1047E000E80616D5F00614D521686FF010000861B0
:1047F000082020772068C06910F4407F204602D04E
:10480000FFF79EFF04E000F0B5F8204600F077F9CE
:104810002777E80708D0F00706D021686FF001007D
:104820000861204600F0EAF9280601D4A80408D55A
:10483000300606D521686FF4025008612046FFF764
:1048400032FDE80508D5300606D521686FF4807082
:1048500008612046FFF726FD680608D5700606D5D4
:1048600021686FF040000861204600F0FBF9A806BF
:1048700008D5B00606D521686FF0200008612046F3
:10488000FFF712FDE80208D5F00206D521686FF4A3
:10489000801008612046FFF758FDA80208D5B00235
:1048A00006D521686FF4001008612046FFF74CFD23
:1048B000680208D5700206D521686FF4800008618F
:1048C0002046FFF743FD28020AD5300208D52168AB
:1048D0006FF4000008612046BDE8F041FFF7E2BD3B
:1048E000BDE8F081F0B587B0044614216846FBF7B7
:1048F000C7FC1D492068884233D11C48C16C41F077
:104900000201C164C16C01F002010591C16C41F06A
:104910000101C164C06C022400F0010005904FF455
:10492000C04000258DE831000626114FCDE9034631
:1049300069463846FEF704FCA0038DE831000420E8
:10494000CDE9034069463846FEF7FAFB4FF4E060D4
:104950008DE83100CDE9034669464FF09040FEF7FF
:10496000EFFB07B0F0BD0000002C0140001002403A
:1049700000040048704770B5044690F83C000026DB
:104980000D4601280BD0012084F83C000C2A4AD0A7
:1049900007DC82B1042A20D0082A06D131E00220A7
:1049A00070BD102A53D0142A63D00126002084F849
:1049B0003C00304670BD206801F080FD20688169B0
:1049C00041F0080181612068816921F00401816161
:1049D000206881692A69114311E0206801F0BCFD5B
:1049E0002068816941F4006181612068816921F456
:1049F00080618161206881692A6941EA02218161BF
:104A0000D4E7206801F0F0FD2068C16941F0080199
:104A1000C1612068C16921F00401C1612068C169D8
:104A20002A69114311E0206801F026FE2068C1695F
:104A300041F40061C1612068C16921F48061C161F4
:104A40002068C1692A6941EA0221C161AEE7206894
:104A500001F05AFE2068016D41F0080101652068EF
:104A6000016D21F0040101652068016D2A6911437F
:104A700011E0206801F080FE2068016D41F40061C2
:104A800001652068016D21F4806101652068016D78
:104A90002A6941EA0221016588E710B5040003D0C4
:104AA00094F83D0010B107E0012010BD002084F80B
:104AB0003C00204600F022F8022084F83D00211D31
:104AC000206801F06FFC012084F8480084F83E0063
:104AD00084F83F0084F8400084F8410084F84200E4
:104AE00084F8430084F8440084F8450084F84600C4
:104AF00084F8470084F83D00002010BD70477047DF
:104B000030B50446022269B1042912D0082917D011
:104B10000C291CD0102921D094F84300012824D05E
:104B2000012030BD94F83E000128F9D184F83E20E0
:104B30001DE094F83F000128F2D184F83F2016E0F0
:104B400094F840000128EBD184F840200FE094F85D
:104B500041000128E4D184F8412008E094F84200A3
:104B60000128DDD184F8422001E084F843200122AD
:104B7000206801F075FC194B20681949194A9842C0
:104B800009D0884207D0904205D0174DA84202D0E4
:104B9000164DA84203D1456C45F400454564206894
:104BA00098420CD0B0F1804F09D0114B984206D0FA
:104BB000104B984203D0884201D0904207D18168BF
:104BC0000D4A1140062906D0B1F5803F03D0016897
:104BD00041F001010160002030BD0000002C0140C7
:104BE00000340140004001400044014000480140C1
:104BF00000040040000800400700010070B5006894
:104C00001349884223D1134C6088401C80B26080D5
:104C100004281CD310480023032190ED070A20200C
:104C2000BCEEC00A10EE102AFCF7BAFA0B49487124
:104C300028B12078401C20700948FEF742FA2078FD
:104C40000025062802D92570FCF770FA658070BD32
:104C50000014004024000020A000002008000020D4
:104C6000B4020020704790F88410012918D0012167
:104C700080F884102421C0F8881001680A680B6845
:104C800023F001030B6022F000510022426603680A
:104C900019602021C0F8881080F8842010467047E1
:104CA000022070477047704770B5044690F8840042
:104CB00001281DD0012084F884002420C4F8880035
:104CC00020680568026822F001020260206882689C
:104CD00022F060620A438260204601F0A9FD20684C
:104CE00005602020C4F88800002084F8840070BD8E
:104CF000022070BD70B5044690F8840001281DD0D4
:104D0000012084F884002420C4F888002068056805
:104D1000026822F0010202602068826822F060428C
:104D20000A438260204601F083FD20680560202050
:104D3000C4F88800002084F8840070BD022070BD93
:104D40007047704770B50446D0F88800D4F88C607E
:104D5000216889684FF01005090618D5212816D159
:104D60002068083050E8001F21F0800140E8001260
:104D7000002AF5D1E06F38B1FDF794FC20B1E06F67
:104D8000FDF701FD202823D0204601F003FF206815
:104D9000806840061AD5222E18D12068083050E8C5
:104DA000001F21F0400140E80012002AF5D1D4F89C
:104DB000800040B1FDF776FC28B1D4F88000FDF703
:104DC000E2FC202804D0204601F0BAFE002070BD8D
:104DD000C4F89050032070BD704700002DE9F041E9
:104DE00003680446D86919689A6840F60F05284296
:104DF0004FF000054FF002060AD187067ED501F07C
:104E0000200702F0805C57EA0C0777D0616F3AE127
:104E1000B24FDFF8CCC2174001EA0C0C57EA0C0C79
:104E20006CD05FEAC07C0CD05FEAC15C09D54FF062
:104E3000010CC3F820C0D4F8903043F00103C4F84B
:104E40009030830709D5D30707D023681E62D4F8B2
:104E5000903043F00403C4F8903043070AD5D307D9
:104E600008D0266804233362D4F8903043F002035C
:104E7000C4F8903003070CD501F020033B4308D061
:104E8000266808233362D4F8903043F00803C4F84E
:104E9000903003050BD54B0109D526684FF400630C
:104EA0003362D4F8903043F02003C4F89030D4F843
:104EB0009030002B3DD0800609D501F0200002F093
:104EC0008051084303D0616F09B120468847D4F868
:104ED000900021688968490602D410F0280F2AD072
:104EE000204601F02DFE2068806840061ED520680F
:104EF000083050E8001F21F0400100E021E040E8C8
:104F00000012002AF3D1D4F8800078B1754981638A
:104F1000D4F88000FDF7FBFB00280AD0D4F880000D
:104F2000816B00E02046BDE8F04108472046FFF7CE
:104F300053FFBDE8F0812046FFF74EFFC4F89050C4
:104F4000F7E7D4F86CC02027BCF1010F7ED15FEAEF
:104F5000C06C7BD55FEAC16C78D5102018622068E0
:104F60008068400645D5D4F8801008684068000481
:104F7000000CDED0B4F85C208242DAD9A4F85E00DE
:104F80000868006880062CD4216851E8000F20F4DE
:104F9000807041E80002002AF6D12068083050E80D
:104FA000001F21F0010140E80012002AF5D120681D
:104FB000083050E8001F21F0400140E80012002AAC
:104FC000F5D1C4F88C70E566206850E8001F21F028
:104FD000100140E80012002AF6D1D4F88000FDF755
:104FE00061FB2667B4F85C00B4F85E10401A81B229
:104FF00030E0B4F85C00B4F85E10401A81B2B4F846
:105000005E00002895D0002993D0226852E8000F56
:1050100020F4907042E80003002BF6D12F4BDB43C5
:105020002068083050E8002F1A4040E8002CBCF1FE
:10503000000FF5D1C4F88C70E5666567226852E808
:10504000000F20F0100042E8000300E006E0002B13
:10505000F4D126672046FFF725FE6AE7C60209D588
:10506000560207D54FF4801018622046BDE8F04183
:10507000FFF767BE03060AD501F0800302F40002C1
:10508000134304D0A16F00297FF44CAF51E74206CF
:1050900011D54A060FD52046026852E8001F21F0BC
:1050A000400142E80013002BF6D1C0F888708567F4
:1050B00000F036F93DE7020206D54A0004D5204645
:1050C000BDE8F041FFF73CBEC001C6D50029C4DAF7
:1050D0002046BDE8F041FFF7E6BD000001000010EA
:1050E00020010004E969000810B5040003D0D4F8D9
:1050F000880010B107E0012010BD002084F8840072
:10510000204600F027F82420C4F8880020680168B1
:1051100021F001010160A06A10B1204601F0AAFB54
:10512000204601F04FFD0128E6D02068416821F4B7
:10513000904141602068816821F02A0181602068E7
:10514000016841F0010101602046BDE8104001F016
:10515000F5BB0000F0B597B00646142111A8FBF787
:105160008FF844216846FBF78BF831493068884254
:105170005CD101200024CDE900046846FEF708FA5E
:1051800008B1FCF78BFB2B48016E41F480410166AE
:10519000016E01F480411691C16C41F00201C164BD
:1051A000C06C11A900F002001690C02011900220DE
:1051B000CDE912040720CDE914401F48FDF7C0FFD8
:1051C0001F4D1E4805F10801286019206860102055
:1051D000802781E891006C61AC61EC6128462C620B
:1051E000FDF730FB08B1FCF759FBF567AE62144DD3
:1051F00012486035143028601820C5E90104C5E95B
:1052000003476C61AC61EC6128462C62FDF71AFB28
:1052100008B1FCF743FBC6F8805000221146252058
:10522000AE62FEF71DF92520FEF70CF917B0F0BDB0
:10523000003801400010024000040048080002400D
:10524000A804002030B4D0F88C30202B02D00220EB
:1052500030BC7047A9B1A2B10023C3660A4C0368F1
:10526000A3420BD05B681B0208D5046854E8003FDA
:1052700043F0806344E80035002DF6D130BC01F0E6
:10528000DBBD0120E4E7000000800040704770476C
:1052900070B50446D0F88800202801D0022070BDE7
:1052A00039B332B32165A4F85420A4F85620002164
:1052B000C4F890102120C4F88800E06FD8B1154BD5
:1052C000C362E36F14481863E36F14485863E06FD8
:1052D000134681632068E56F00F128022846216D9E
:1052E000FDF710FB38B11020C4F890002020C4F85E
:1052F0008800012070BD21684020086220680830C5
:1053000050E8001F41F0800140E80012002AF5D16A
:10531000002070BDF36A0008356B0008FD690008C5
:1053200070477047FEE700EB8100006E00F0F84028
:1053300070478068C0F3C00070478068C0F3C00049
:1053400070478068C0F3800070478068C0F38000B9
:105350007047C06810F4406F01D0002070470120F2
:105360007047042303EAD15310B518444369C1F3CD
:10537000045107248C40A3438A401343436110BD6A
:1053800000EB8100016E21F000411143016670477E
:105390003EB54FF0904501AC002210212846FDF7A4
:1053A000F3FF0CA0032300680290642000902246C3
:1053B00002A90948FEF72CFE012210212846FDF71C
:1053C000E3FF9DF805009DF80410800840EA811075
:1053D0003EBD0000FFFFFF001803002070B592B033
:1053E00000240F9410943C2168461194FAF748FF6A
:1053F00034484FF0A041012501604FF44031C0E92D
:10540000011400F110010426C46081E870000477E3
:105410004577056280F8244080F83840C46380F8FE
:105420004040FCF7AFFF08B1FCF738FA0FA9254858
:105430000F94FCF703FE08B1FCF730FA2248009005
:105440000920CDE901057F200594CDE903068020E0
:105450008DF824408DF825400A900B9008968DF821
:1054600026408DF8304069461648FCF7BDFA08B171
:10547000FCF714FA1548009040F20F1001906946AD
:105480001048FCF7B1FA08B1FCF708FA1048009090
:1054900040F21520019069460A48FCF7A5FA08B1C8
:1054A000FCF7FCF90B48009040F21B300190694674
:1054B0000448FCF799FA002801D0FCF7EFF912B084
:1054C00070BD0000200200200200300404006008CB
:1054D0000800900C1000C010074910B5054808607E
:1054E0000846FDF7B1F8002803D0BDE81040FCF7EE
:1054F000D5B910BD000C02408C020020114808B53F
:10550000816C41F004018164816C01F0040100911F
:10551000816C41F001018164806C002200F0010087
:10552000009011460B20FDF79BFF0B20FDF78AFF33
:10553000002211460C20FDF793FFBDE808400C2027
:10554000FDF780BF0010024070B5124810490122DB
:105550000160002141608160C16002744174817406
:105560001123C0E905320D240225436200F128060B
:10557000C0E9074586E83400C0E90D21C163FDF7A5
:105580001DFC002803D0BDE87040FCF787B970BD52
:1055900000640040B4020020F0B587B014216846D2
:1055A000FAF76EFE2248C16C41F00401C164C16C7F
:1055B00001F004010591C16C41F02001C164C16C8E
:1055C00001F020010591C16C41F00101C164C16C81
:1055D00001F001010591C16C41F00201C164C06C90
:1055E000144E00F002004FF40054059000222146B2
:1055F0003046FDF7C9FE4FF0904700221021384693
:10560000FDF7C2FE0125CDE900450024029469465C
:1056100030460394FDF794FD1020CDE900050320EA
:10562000CDE9024069463846FDF78AFD07B0F0BD76
:105630000010024000080048124810B510490160EF
:105640004FF48271416000214FF4E062C0E9021220
:105650000122C0E90412520282611822C0E9072126
:1056600007224162C0E90A1201634163FEF71EFC92
:10567000002803D0BDE81040FCF710B910BD0000B1
:10568000003001401803002030B59BB0002419946D
:105690001A9417941894149415941C21684616941F
:1056A000FAF7EEFD342107A8FAF7EAFD3E483D4936
:1056B000202580E8320041F29A01C0E9031401215B
:1056C000416180218161FEF7EEFE08B1FCF7E6F84A
:1056D0004FF48050179017A93348FEF7B1FF08B177
:1056E000FCF7DCF83048FFF7D8F908B1FCF7D6F83A
:1056F000CDE9145414A92C481694FEF729FE08B1DC
:10570000FCF7CCF87020009040F64D00CDE9010484
:105710000394049405940022694623480694FFF7F5
:105720002AF908B1FCF7BAF8042269461E48FFF7C7
:1057300022F908B1FCF7B2F8082269461A48FFF7C7
:105740001AF908B1FCF7AAF8602000900A2001902D
:105750000C2269461448FFF70EF908B1FCF79EF8D1
:105760004FF400600790401008908010099032209C
:10577000CDE90A044FF40050CDE90C0400030E9467
:10578000CDE90F40C012CDE9124007A91194064897
:10579000FEF78CFD08B1FCF781F80348FFF7A2F88B
:1057A0001BB030BD002C01407C0300203EB500241E
:1057B0000F48009401940D49029401601021C0E942
:1057C000011440F6C3118461C160FEF76CFE08B19C
:1057D000FCF764F80094694605480294FEF7B8FDAA
:1057E000002801D0FCF75AF83EBD0000001400402C
:1057F000C8030020184810B5164901604FF4613104
:105800004160002181600C22C160C0E90412816105
:10581000C161016241628162FFF766FC08B1FCF779
:105820003DF800210C48FFF765FA08B1FCF736F89F
:1058300000210948FFF738FA08B1FCF72FF80648AD
:10584000FFF711FA002803D0BDE81040FCF726B896
:1058500010BD00000038014014040020FEE70000E5
:105860002DE9F04705462DED028B0E4608799FED98
:105870005C8A012841D002275A4C022847D00328CD
:1058800047D0042847D0DFED588A2146574B91ED89
:10589000180A91ED1B1A01F1A80A052845D006281F
:1058A00076D194ED242AD3ED010ADFF8449198468D
:1058B00070EEC20AF0EEE00A10EE900A48450CDDE8
:1058C000F0EE401ADFED4B0AB0EE420A504600F00F
:1058D000C4FA94ED240A88ED010A94ED240A95EDAA
:1058E000131A454930EE410A10EE100ADFED430A63
:1058F000884235DD30EE600A39E00120C87095ED50
:105900000C1A3F48F0EE480A9FED3E0A5EE0CF7069
:1059100052E0CF7046E0CF702946324800F074F96B
:1059200094ED270A84ED190A3CE0D3ED000A3649CC
:10593000984670EEC00AF0EEE00A10EE900A884237
:1059400008DD5046DFED310A00F034FB94ED180A13
:1059500088ED000AB0EE680A504600F033FB1EE006
:1059600010EE100A2A49884201D930EE200A10EEC2
:10597000100A484504DC10EE100A2649884208D96E
:10598000F0EE680AB0EE410A504600F06FFA06E009
:1059900022E02946134800F037F994ED270A84EDF8
:1059A000190AF77029460F4800F0B0F994ED1E0A65
:1059B00084ED020A84ED0D8A0A4800F05AF895ED4C
:1059C0000C1AD4ED110A94ED070A0D48BDEC028BB8
:1059D000BDE8F04700F01ABCBDEC028BBDE8F087D3
:1059E000000000004C0100206F12033A1400002058
:1059F0000000A0400000C842000034430000B4434F
:105A0000F0000020CDCCCC3ECDCCCC3D0000FA4304
:105A1000000034C30000A0C010B50F4A0F49104861
:105A2000FBF780FA0D490F48FBF752FE0E4B0F4A69
:105A30000C490B48FBF70CFC084800210171017868
:105A4000002908D14078012805D1BDE8104003495C
:105A50000448FFF705BF10BD00000020080000202B
:105A600050000020A0000020F00000204C01002089
:105A7000FEE790ED0C0AD0ED021AF1EE400AF4EECA
:105A8000E01AF1EE10FA02D2F0EE601A06E0F4EE3F
:105A9000C01AF1EE10FA01DDF0EE401AC0ED021A64
:105AA000B0EE611AD0ED0D1AF4EEE01AF1EE10FA34
:105AB00002D2F0EE601A06E0F4EEC01AF1EE10FA2F
:105AC00001DDF0EE401AC0ED0D1A90ED030A31EE43
:105AD000402A80ED052A90ED071AD0ED080AB4EEB1
